{
  "contractName": "Enrollment",
  "abi": [
    {
      "constant": true,
      "inputs": [],
      "name": "EnrollmentCount",
      "outputs": [
        {
          "name": "",
          "type": "uint256"
        }
      ],
      "payable": false,
      "stateMutability": "view",
      "type": "function",
      "signature": "0x58fff4ed"
    },
    {
      "constant": true,
      "inputs": [
        {
          "name": "",
          "type": "uint256"
        }
      ],
      "name": "enrollments",
      "outputs": [
        {
          "name": "id",
          "type": "uint256"
        },
        {
          "name": "vendorName",
          "type": "string"
        },
        {
          "name": "puv",
          "type": "string"
        },
        {
          "name": "bpuv",
          "type": "string"
        }
      ],
      "payable": false,
      "stateMutability": "view",
      "type": "function",
      "signature": "0x9a6b2087"
    },
    {
      "constant": true,
      "inputs": [
        {
          "name": "_addr",
          "type": "address"
        }
      ],
      "name": "addrToStr",
      "outputs": [
        {
          "name": "",
          "type": "string"
        }
      ],
      "payable": false,
      "stateMutability": "pure",
      "type": "function",
      "signature": "0x4f44ff56"
    },
    {
      "constant": false,
      "inputs": [
        {
          "name": "_vendorName",
          "type": "string"
        },
        {
          "name": "_puv",
          "type": "string"
        },
        {
          "name": "_bpuv",
          "type": "string"
        }
      ],
      "name": "createEnrollment",
      "outputs": [],
      "payable": false,
      "stateMutability": "nonpayable",
      "type": "function",
      "signature": "0xd6c6cdf7"
    }
  ],
  "bytecode": "0x608060405234801561001057600080fd5b506109b3806100206000396000f3fe6080604052600436106100615763ffffffff7c01000000000000000000000000000000000000000000000000000000006000350416634f44ff56811461006657806358fff4ed1461011b5780639a6b208714610142578063d6c6cdf7146102b7575b600080fd5b34801561007257600080fd5b506100a66004803603602081101561008957600080fd5b503573ffffffffffffffffffffffffffffffffffffffff1661047a565b6040805160208082528351818301528351919283929083019185019080838360005b838110156100e05781810151838201526020016100c8565b50505050905090810190601f16801561010d5780820380516001836020036101000a031916815260200191505b509250505060405180910390f35b34801561012757600080fd5b5061013061068a565b60408051918252519081900360200190f35b34801561014e57600080fd5b5061016c6004803603602081101561016557600080fd5b5035610690565b60405180858152602001806020018060200180602001848103845287818151815260200191508051906020019080838360005b838110156101b757818101518382015260200161019f565b50505050905090810190601f1680156101e45780820380516001836020036101000a031916815260200191505b50848103835286518152865160209182019188019080838360005b838110156102175781810151838201526020016101ff565b50505050905090810190601f1680156102445780820380516001836020036101000a031916815260200191505b50848103825285518152855160209182019187019080838360005b8381101561027757818101518382015260200161025f565b50505050905090810190601f1680156102a45780820380516001836020036101000a031916815260200191505b5097505050505050505060405180910390f35b3480156102c357600080fd5b50610478600480360360608110156102da57600080fd5b8101906020810181356401000000008111156102f557600080fd5b82018360208201111561030757600080fd5b8035906020019184600183028401116401000000008311171561032957600080fd5b91908080601f016020809104026020016040519081016040528093929190818152602001838380828437600092019190915250929594936020810193503591505064010000000081111561037c57600080fd5b82018360208201111561038e57600080fd5b803590602001918460018302840111640100000000831117156103b057600080fd5b91908080601f016020809104026020016040519081016040528093929190818152602001838380828437600092019190915250929594936020810193503591505064010000000081111561040357600080fd5b82018360208201111561041557600080fd5b8035906020019184600183028401116401000000008311171561043757600080fd5b91908080601f016020809104026020016040519081016040528093929190818152602001838380828437600092019190915250929550610858945050505050565b005b604080518082018252601081527f3031323334353637383961626364656600000000000000000000000000000000602082015281516033808252606082810190945273ffffffffffffffffffffffffffffffffffffffff8516929184916020820181803883390190505090507f300000000000000000000000000000000000000000000000000000000000000081600081518110151561051657fe5b906020010190600160f860020a031916908160001a9053507f780000000000000000000000000000000000000000000000000000000000000081600181518110151561055e57fe5b906020010190600160f860020a031916908160001a90535060005b60148110156106815782600485600c84016020811061059457fe5b1a60f860020a02600160f860020a031916908060020a820491505060f860020a900460ff168151811015156105c557fe5b90602001015160f860020a900460f860020a0282826002026002018151811015156105ec57fe5b906020010190600160f860020a031916908160001a9053508284600c83016020811061061457fe5b1a60f860020a02600f60f860020a021660f860020a900460ff1681518110151561063a57fe5b90602001015160f860020a900460f860020a02828260020260030181518110151561066157fe5b906020010190600160f860020a031916908160001a905350600101610579565b50949350505050565b60005481565b600160208181526000928352604092839020805481840180548651600296821615610100026000190190911695909504601f8101859004850286018501909652858552909491939290919083018282801561072c5780601f106107015761010080835404028352916020019161072c565b820191906000526020600020905b81548152906001019060200180831161070f57829003601f168201915b50505060028085018054604080516020601f60001961010060018716150201909416959095049283018590048502810185019091528181529596959450909250908301828280156107be5780601f10610793576101008083540402835291602001916107be565b820191906000526020600020905b8154815290600101906020018083116107a157829003601f168201915b5050505060038301805460408051602060026001851615610100026000190190941693909304601f810184900484028201840190925281815294959493509083018282801561084e5780601f106108235761010080835404028352916020019161084e565b820191906000526020600020905b81548152906001019060200180831161083157829003601f168201915b5050505050905084565b6000805460019081018083556040805160808101825282815260208082018981528284018990526060830188905293865284815291909420845181559151805192936108ac939085019291909101906108ec565b50604082015180516108c89160028401916020909101906108ec565b50606082015180516108e49160038401916020909101906108ec565b505050505050565b828054600181600116156101000203166002900490600052602060002090601f016020900481019282601f1061092d57805160ff191683800117855561095a565b8280016001018555821561095a579182015b8281111561095a57825182559160200191906001019061093f565b5061096692915061096a565b5090565b61098491905b808211156109665760008155600101610970565b9056fea165627a7a72305820ccdd478a2db53cb67000b36056158db39770c439b47d8d90d3289da1d916db570029",
  "source": "pragma solidity ^0.5.0;\n\ncontract Enrollment {\n  uint public EnrollmentCount; // State Variable similar to Static\n\n  struct Enrollment {\n    uint id;\n    string vendorName;\n    string puv; // sha256 checksum\n    string bpuv; // ETH wallet address\n  }\n\n  // mapping is a hash datastruc where uint is the key, Enrollment is the value\n  // mapping datastruc serves as a DB index method\n  mapping(uint => Enrollment) public enrollments;\n\n  // Utitlity Function\n  function addrToStr(address _addr) public pure returns (string memory) {\n    bytes32 value = bytes32(uint256(uint160(_addr)));\n    bytes memory alphabet = \"0123456789abcdef\";\n\n    bytes memory str = new bytes(51);\n    str[0] = \"0\";\n    str[1] = \"x\";\n    for (uint i = 0; i < 20; i++) {\n        str[2+i*2] = alphabet[uint(uint8(value[i + 12] >> 4))];\n        str[3+i*2] = alphabet[uint(uint8(value[i + 12] & 0x0f))];\n    }\n    return string(str);\n}\n\n  // When we deploy contract to ledger, it will init a default enrollment\n  // constructor() public {\n  //   string memory daName = \"DistributorAuthority\";\n  //   string memory  puDA = \"81294bb551beec628ed8bf38927e8489b7322d9c43d1235bb7d481917a91c305\";\n  //   address bpuDAaddr = 0x3781f7B2cC44BeF32B6D532561A84A5726Ecd44d;\n  //   string memory bpuDA = addrToStr(bpuDAaddr); // Arbitrary ganache wallet address\n  //   createEnrollment(daName, puDA, bpuDA);\n  // }\n\n  // Create a function to be called when contract invoked\n  function createEnrollment(string memory _vendorName, string memory _puv, string memory _bpuv) public {\n    EnrollmentCount ++; // Increment State variable\n\n    // Init Enrollment obj and store it into enrollments hashmap\n    enrollments[EnrollmentCount] = Enrollment(EnrollmentCount, _vendorName, _puv, _bpuv);\n  }\n}\n",
  "sourcePath": "C:/Users/nic/Desktop/SIT_Local/ITP/Secure_Patch_Distribution/nr_dapp/contracts/Enrollment.sol",
  "compiler": {
    "name": "solc",
    "version": "0.5.0+commit.1d4f565a.Emscripten.clang"
  },
  "schemaVersion": "3.0.1",
  "updatedAt": "2022-07-15T14:39:13.140Z",
  "devdoc": {
    "methods": {}
  },
  "userdoc": {
    "methods": {}
  }
}