{
  "contractName": "SubmitPatch",
  "abi": [
    {
      "constant": true,
      "inputs": [],
      "name": "PatchCount",
      "outputs": [
        {
          "name": "",
          "type": "uint256"
        }
      ],
      "payable": false,
      "stateMutability": "view",
      "type": "function",
      "signature": "0x140e28f5"
    },
    {
      "constant": true,
      "inputs": [
        {
          "name": "",
          "type": "uint256"
        }
      ],
      "name": "patches",
      "outputs": [
        {
          "name": "id",
          "type": "uint256"
        },
        {
          "name": "hPatch",
          "type": "string"
        },
        {
          "name": "txHashDC",
          "type": "string"
        }
      ],
      "payable": false,
      "stateMutability": "view",
      "type": "function",
      "signature": "0x6ee697bd"
    },
    {
      "constant": true,
      "inputs": [
        {
          "name": "_addr",
          "type": "address"
        }
      ],
      "name": "addrToStr",
      "outputs": [
        {
          "name": "",
          "type": "string"
        }
      ],
      "payable": false,
      "stateMutability": "pure",
      "type": "function",
      "signature": "0x4f44ff56"
    },
    {
      "constant": false,
      "inputs": [
        {
          "name": "_hPatch",
          "type": "string"
        },
        {
          "name": "_txHashDC",
          "type": "string"
        }
      ],
      "name": "createPatch",
      "outputs": [],
      "payable": false,
      "stateMutability": "nonpayable",
      "type": "function",
      "signature": "0x7dfa38e4"
    }
  ],
  "bytecode": "0x608060405234801561001057600080fd5b50610812806100206000396000f3fe6080604052600436106100615763ffffffff7c0100000000000000000000000000000000000000000000000000000000600035041663140e28f581146100665780634f44ff561461008d5780636ee697bd146101425780637dfa38e414610251575b600080fd5b34801561007257600080fd5b5061007b61038d565b60408051918252519081900360200190f35b34801561009957600080fd5b506100cd600480360360208110156100b057600080fd5b503573ffffffffffffffffffffffffffffffffffffffff16610393565b6040805160208082528351818301528351919283929083019185019080838360005b838110156101075781810151838201526020016100ef565b50505050905090810190601f1680156101345780820380516001836020036101000a031916815260200191505b509250505060405180910390f35b34801561014e57600080fd5b5061016c6004803603602081101561016557600080fd5b50356105a3565b604051808481526020018060200180602001838103835285818151815260200191508051906020019080838360005b838110156101b357818101518382015260200161019b565b50505050905090810190601f1680156101e05780820380516001836020036101000a031916815260200191505b50838103825284518152845160209182019186019080838360005b838110156102135781810151838201526020016101fb565b50505050905090810190601f1680156102405780820380516001836020036101000a031916815260200191505b509550505050505060405180910390f35b34801561025d57600080fd5b5061038b6004803603604081101561027457600080fd5b81019060208101813564010000000081111561028f57600080fd5b8201836020820111156102a157600080fd5b803590602001918460018302840111640100000000831117156102c357600080fd5b91908080601f016020809104026020016040519081016040528093929190818152602001838380828437600092019190915250929594936020810193503591505064010000000081111561031657600080fd5b82018360208201111561032857600080fd5b8035906020019184600183028401116401000000008311171561034a57600080fd5b91908080601f0160208091040260200160405190810160405280939291908181526020018383808284376000920191909152509295506106db945050505050565b005b60005481565b604080518082018252601081527f3031323334353637383961626364656600000000000000000000000000000000602082015281516033808252606082810190945273ffffffffffffffffffffffffffffffffffffffff8516929184916020820181803883390190505090507f300000000000000000000000000000000000000000000000000000000000000081600081518110151561042f57fe5b906020010190600160f860020a031916908160001a9053507f780000000000000000000000000000000000000000000000000000000000000081600181518110151561047757fe5b906020010190600160f860020a031916908160001a90535060005b601481101561059a5782600485600c8401602081106104ad57fe5b1a60f860020a02600160f860020a031916908060020a820491505060f860020a900460ff168151811015156104de57fe5b90602001015160f860020a900460f860020a02828260020260020181518110151561050557fe5b906020010190600160f860020a031916908160001a9053508284600c83016020811061052d57fe5b1a60f860020a02600f60f860020a021660f860020a900460ff1681518110151561055357fe5b90602001015160f860020a900460f860020a02828260020260030181518110151561057a57fe5b906020010190600160f860020a031916908160001a905350600101610492565b50949350505050565b600160208181526000928352604092839020805481840180548651600296821615610100026000190190911695909504601f8101859004850286018501909652858552909491939290919083018282801561063f5780601f106106145761010080835404028352916020019161063f565b820191906000526020600020905b81548152906001019060200180831161062257829003601f168201915b50505060028085018054604080516020601f60001961010060018716150201909416959095049283018590048502810185019091528181529596959450909250908301828280156106d15780601f106106a6576101008083540402835291602001916106d1565b820191906000526020600020905b8154815290600101906020018083116106b457829003601f168201915b5050505050905083565b60008054600190810180835560408051606081018252828152602080820188815282840188905293865284815291909420845181559151805192936107289390850192919091019061074b565b506040820151805161074491600284019160209091019061074b565b5050505050565b828054600181600116156101000203166002900490600052602060002090601f016020900481019282601f1061078c57805160ff19168380011785556107b9565b828001600101855582156107b9579182015b828111156107b957825182559160200191906001019061079e565b506107c59291506107c9565b5090565b6107e391905b808211156107c557600081556001016107cf565b9056fea165627a7a72305820bc2d2412e0390b92e60336baa5042ae6688ad7a99dc8eeb97371e88371b5973c0029",
  "source": "pragma solidity ^0.5.0;\n\ncontract SubmitPatch {\n  uint public PatchCount; // State Variable similar to Static\n\n  struct Patch {\n    uint id;\n    string hPatch;  // SHA256 Hash of Patch\n    string txHashDC; // Transaction Hash of Dgitial Cert\n  }\n\n  // mapping is a hash datastruc where uint is the key, Patch is the value\n  // mapping datastruc serves as a DB index method\n  mapping(uint => Patch) public patches;\n\n  // Utitlity Function\n  function addrToStr(address _addr) public pure returns (string memory) {\n    bytes32 value = bytes32(uint256(uint160(_addr)));\n    bytes memory alphabet = \"0123456789abcdef\";\n\n    bytes memory str = new bytes(51);\n    str[0] = \"0\";\n    str[1] = \"x\";\n    for (uint i = 0; i < 20; i++) {\n        str[2+i*2] = alphabet[uint(uint8(value[i + 12] >> 4))];\n        str[3+i*2] = alphabet[uint(uint8(value[i + 12] & 0x0f))];\n    }\n    return string(str);\n}\n\n  // Create a function to be called when contract invoked\n  function createPatch(string memory _hPatch, string memory _txHashDC) public {\n    PatchCount ++; // Increment State variable\n\n    // Init Patch obj and store it into patches hashmap\n    patches[PatchCount] = Patch(PatchCount, _hPatch, _txHashDC);\n  }\n}\n",
  "sourcePath": "C:/Users/nic/Desktop/SIT_Local/ITP/Secure_Patch_Distribution/nr_dapp/contracts/SubmitPatch.sol",
  "compiler": {
    "name": "solc",
    "version": "0.5.0+commit.1d4f565a.Emscripten.clang"
  },
  "schemaVersion": "3.0.1",
  "updatedAt": "2022-07-17T12:56:16.120Z",
  "devdoc": {
    "methods": {}
  },
  "userdoc": {
    "methods": {}
  }
}